{
  "_format": "hh-sol-artifact-1",
  "contractName": "DynamicSvgNft",
  "sourceName": "contracts/DynamicSvgNft.sol",
  "abi": [
    {
      "inputs": [
        {
          "internalType": "address",
          "name": "priceFeedAddress",
          "type": "address"
        },
        {
          "internalType": "string",
          "name": "lowSvg",
          "type": "string"
        },
        {
          "internalType": "string",
          "name": "highSvg",
          "type": "string"
        }
      ],
      "stateMutability": "nonpayable",
      "type": "constructor"
    },
    {
      "anonymous": false,
      "inputs": [
        {
          "indexed": true,
          "internalType": "address",
          "name": "owner",
          "type": "address"
        },
        {
          "indexed": true,
          "internalType": "address",
          "name": "approved",
          "type": "address"
        },
        {
          "indexed": true,
          "internalType": "uint256",
          "name": "tokenId",
          "type": "uint256"
        }
      ],
      "name": "Approval",
      "type": "event"
    },
    {
      "anonymous": false,
      "inputs": [
        {
          "indexed": true,
          "internalType": "address",
          "name": "owner",
          "type": "address"
        },
        {
          "indexed": true,
          "internalType": "address",
          "name": "operator",
          "type": "address"
        },
        {
          "indexed": false,
          "internalType": "bool",
          "name": "approved",
          "type": "bool"
        }
      ],
      "name": "ApprovalForAll",
      "type": "event"
    },
    {
      "anonymous": false,
      "inputs": [
        {
          "indexed": true,
          "internalType": "uint256",
          "name": "tokenId",
          "type": "uint256"
        },
        {
          "indexed": false,
          "internalType": "int256",
          "name": "highValue",
          "type": "int256"
        }
      ],
      "name": "CreatedNFT",
      "type": "event"
    },
    {
      "anonymous": false,
      "inputs": [
        {
          "indexed": true,
          "internalType": "address",
          "name": "from",
          "type": "address"
        },
        {
          "indexed": true,
          "internalType": "address",
          "name": "to",
          "type": "address"
        },
        {
          "indexed": true,
          "internalType": "uint256",
          "name": "tokenId",
          "type": "uint256"
        }
      ],
      "name": "Transfer",
      "type": "event"
    },
    {
      "inputs": [
        {
          "internalType": "address",
          "name": "to",
          "type": "address"
        },
        {
          "internalType": "uint256",
          "name": "tokenId",
          "type": "uint256"
        }
      ],
      "name": "approve",
      "outputs": [],
      "stateMutability": "nonpayable",
      "type": "function"
    },
    {
      "inputs": [
        {
          "internalType": "address",
          "name": "owner",
          "type": "address"
        }
      ],
      "name": "balanceOf",
      "outputs": [
        {
          "internalType": "uint256",
          "name": "",
          "type": "uint256"
        }
      ],
      "stateMutability": "view",
      "type": "function"
    },
    {
      "inputs": [
        {
          "internalType": "uint256",
          "name": "tokenId",
          "type": "uint256"
        }
      ],
      "name": "getApproved",
      "outputs": [
        {
          "internalType": "address",
          "name": "",
          "type": "address"
        }
      ],
      "stateMutability": "view",
      "type": "function"
    },
    {
      "inputs": [],
      "name": "getHighSVG",
      "outputs": [
        {
          "internalType": "string",
          "name": "",
          "type": "string"
        }
      ],
      "stateMutability": "view",
      "type": "function"
    },
    {
      "inputs": [],
      "name": "getLowSVG",
      "outputs": [
        {
          "internalType": "string",
          "name": "",
          "type": "string"
        }
      ],
      "stateMutability": "view",
      "type": "function"
    },
    {
      "inputs": [],
      "name": "getPrice",
      "outputs": [
        {
          "internalType": "int256",
          "name": "",
          "type": "int256"
        }
      ],
      "stateMutability": "nonpayable",
      "type": "function"
    },
    {
      "inputs": [],
      "name": "getPriceFeed",
      "outputs": [
        {
          "internalType": "contract AggregatorV3Interface",
          "name": "",
          "type": "address"
        }
      ],
      "stateMutability": "view",
      "type": "function"
    },
    {
      "inputs": [],
      "name": "getTokenCounter",
      "outputs": [
        {
          "internalType": "uint256",
          "name": "",
          "type": "uint256"
        }
      ],
      "stateMutability": "view",
      "type": "function"
    },
    {
      "inputs": [
        {
          "internalType": "address",
          "name": "owner",
          "type": "address"
        },
        {
          "internalType": "address",
          "name": "operator",
          "type": "address"
        }
      ],
      "name": "isApprovedForAll",
      "outputs": [
        {
          "internalType": "bool",
          "name": "",
          "type": "bool"
        }
      ],
      "stateMutability": "view",
      "type": "function"
    },
    {
      "inputs": [
        {
          "internalType": "int256",
          "name": "highValue",
          "type": "int256"
        }
      ],
      "name": "mintNft",
      "outputs": [],
      "stateMutability": "nonpayable",
      "type": "function"
    },
    {
      "inputs": [],
      "name": "name",
      "outputs": [
        {
          "internalType": "string",
          "name": "",
          "type": "string"
        }
      ],
      "stateMutability": "view",
      "type": "function"
    },
    {
      "inputs": [
        {
          "internalType": "uint256",
          "name": "tokenId",
          "type": "uint256"
        }
      ],
      "name": "ownerOf",
      "outputs": [
        {
          "internalType": "address",
          "name": "",
          "type": "address"
        }
      ],
      "stateMutability": "view",
      "type": "function"
    },
    {
      "inputs": [],
      "name": "s_price",
      "outputs": [
        {
          "internalType": "uint256",
          "name": "",
          "type": "uint256"
        }
      ],
      "stateMutability": "view",
      "type": "function"
    },
    {
      "inputs": [
        {
          "internalType": "uint256",
          "name": "",
          "type": "uint256"
        }
      ],
      "name": "s_tokenIdToHighValue",
      "outputs": [
        {
          "internalType": "int256",
          "name": "",
          "type": "int256"
        }
      ],
      "stateMutability": "view",
      "type": "function"
    },
    {
      "inputs": [
        {
          "internalType": "address",
          "name": "from",
          "type": "address"
        },
        {
          "internalType": "address",
          "name": "to",
          "type": "address"
        },
        {
          "internalType": "uint256",
          "name": "tokenId",
          "type": "uint256"
        }
      ],
      "name": "safeTransferFrom",
      "outputs": [],
      "stateMutability": "nonpayable",
      "type": "function"
    },
    {
      "inputs": [
        {
          "internalType": "address",
          "name": "from",
          "type": "address"
        },
        {
          "internalType": "address",
          "name": "to",
          "type": "address"
        },
        {
          "internalType": "uint256",
          "name": "tokenId",
          "type": "uint256"
        },
        {
          "internalType": "bytes",
          "name": "data",
          "type": "bytes"
        }
      ],
      "name": "safeTransferFrom",
      "outputs": [],
      "stateMutability": "nonpayable",
      "type": "function"
    },
    {
      "inputs": [
        {
          "internalType": "address",
          "name": "operator",
          "type": "address"
        },
        {
          "internalType": "bool",
          "name": "approved",
          "type": "bool"
        }
      ],
      "name": "setApprovalForAll",
      "outputs": [],
      "stateMutability": "nonpayable",
      "type": "function"
    },
    {
      "inputs": [
        {
          "internalType": "bytes4",
          "name": "interfaceId",
          "type": "bytes4"
        }
      ],
      "name": "supportsInterface",
      "outputs": [
        {
          "internalType": "bool",
          "name": "",
          "type": "bool"
        }
      ],
      "stateMutability": "view",
      "type": "function"
    },
    {
      "inputs": [
        {
          "internalType": "string",
          "name": "svg",
          "type": "string"
        }
      ],
      "name": "svgToImageURI",
      "outputs": [
        {
          "internalType": "string",
          "name": "",
          "type": "string"
        }
      ],
      "stateMutability": "pure",
      "type": "function"
    },
    {
      "inputs": [],
      "name": "symbol",
      "outputs": [
        {
          "internalType": "string",
          "name": "",
          "type": "string"
        }
      ],
      "stateMutability": "view",
      "type": "function"
    },
    {
      "inputs": [
        {
          "internalType": "uint256",
          "name": "tokenId",
          "type": "uint256"
        }
      ],
      "name": "tokenURI",
      "outputs": [
        {
          "internalType": "string",
          "name": "",
          "type": "string"
        }
      ],
      "stateMutability": "view",
      "type": "function"
    },
    {
      "inputs": [
        {
          "internalType": "address",
          "name": "from",
          "type": "address"
        },
        {
          "internalType": "address",
          "name": "to",
          "type": "address"
        },
        {
          "internalType": "uint256",
          "name": "tokenId",
          "type": "uint256"
        }
      ],
      "name": "transferFrom",
      "outputs": [],
      "stateMutability": "nonpayable",
      "type": "function"
    }
  ],
  "bytecode": "0x60a06040523480156200001157600080fd5b5060405162003e0938038062003e0983398181016040528101906200003791906200064f565b6040518060400160405280600f81526020017f44796e616d696320535647204e465400000000000000000000000000000000008152506040518060400160405280600381526020017f44534e00000000000000000000000000000000000000000000000000000000008152508160009080519060200190620000bb9291906200039d565b508060019080519060200190620000d49291906200039d565b5050506000600681905550620000f0826200017160201b60201c565b60079080519060200190620001079291906200039d565b5062000119816200017160201b60201c565b60089080519060200190620001309291906200039d565b508273ffffffffffffffffffffffffffffffffffffffff1660808173ffffffffffffffffffffffffffffffffffffffff1660601b815250505050506200093a565b60606000620001ac836040516020016200018c919062000736565b6040516020818303038152906040526200020f60201b6200107d1760201c565b90506040518060400160405280601a81526020017f646174613a696d6167652f7376672b786d6c3b6261736536342c00000000000081525081604051602001620001f89291906200074f565b604051602081830303815290604052915050919050565b6060600082511415620002345760405180602001604052806000815250905062000398565b600060405180606001604052806040815260200162003dc96040913990506000600360028551620002669190620007b0565b6200027291906200083c565b600462000280919062000874565b90506000602082620002939190620007b0565b67ffffffffffffffff811115620002af57620002ae620004e1565b5b6040519080825280601f01601f191660200182016040528015620002e25781602001600182028036833780820191505090505b509050818152600183018586518101602084015b8183101562000353576003830192508251603f8160121c168501518253600182019150603f81600c1c168501518253600182019150603f8160061c168501518253600182019150603f8116850151825360018201915050620002f6565b60038951066001811462000370576002811462000381576200038c565b613d3d60f01b60028303526200038c565b603d60f81b60018303525b50505050508093505050505b919050565b828054620003ab9062000904565b90600052602060002090601f016020900481019282620003cf57600085556200041b565b82601f10620003ea57805160ff19168380011785556200041b565b828001600101855582156200041b579182015b828111156200041a578251825591602001919060010190620003fd565b5b5090506200042a91906200042e565b5090565b5b80821115620004495760008160009055506001016200042f565b5090565b6000604051905090565b600080fd5b600080fd5b600073ffffffffffffffffffffffffffffffffffffffff82169050919050565b60006200048e8262000461565b9050919050565b620004a08162000481565b8114620004ac57600080fd5b50565b600081519050620004c08162000495565b92915050565b600080fd5b600080fd5b6000601f19601f8301169050919050565b7f4e487b7100000000000000000000000000000000000000000000000000000000600052604160045260246000fd5b6200051b82620004d0565b810181811067ffffffffffffffff821117156200053d576200053c620004e1565b5b80604052505050565b6000620005526200044d565b905062000560828262000510565b919050565b600067ffffffffffffffff821115620005835762000582620004e1565b5b6200058e82620004d0565b9050602081019050919050565b60005b83811015620005bb5780820151818401526020810190506200059e565b83811115620005cb576000848401525b50505050565b6000620005e8620005e28462000565565b62000546565b905082815260208101848484011115620006075762000606620004cb565b5b620006148482856200059b565b509392505050565b600082601f830112620006345762000633620004c6565b5b815162000646848260208601620005d1565b91505092915050565b6000806000606084860312156200066b576200066a62000457565b5b60006200067b86828701620004af565b935050602084015167ffffffffffffffff8111156200069f576200069e6200045c565b5b620006ad868287016200061c565b925050604084015167ffffffffffffffff811115620006d157620006d06200045c565b5b620006df868287016200061c565b9150509250925092565b600081519050919050565b600081905092915050565b60006200070c82620006e9565b620007188185620006f4565b93506200072a8185602086016200059b565b80840191505092915050565b6000620007448284620006ff565b915081905092915050565b60006200075d8285620006ff565b91506200076b8284620006ff565b91508190509392505050565b6000819050919050565b7f4e487b7100000000000000000000000000000000000000000000000000000000600052601160045260246000fd5b6000620007bd8262000777565b9150620007ca8362000777565b9250827fffffffffffffffffffffffffffffffffffffffffffffffffffffffffffffffff0382111562000802576200080162000781565b5b828201905092915050565b7f4e487b7100000000000000000000000000000000000000000000000000000000600052601260045260246000fd5b6000620008498262000777565b9150620008568362000777565b9250826200086957620008686200080d565b5b828204905092915050565b6000620008818262000777565b91506200088e8362000777565b9250817fffffffffffffffffffffffffffffffffffffffffffffffffffffffffffffffff0483118215151615620008ca57620008c962000781565b5b828202905092915050565b7f4e487b7100000000000000000000000000000000000000000000000000000000600052602260045260246000fd5b600060028204905060018216806200091d57607f821691505b60208210811415620009345762000933620008d5565b5b50919050565b60805160601c6134626200096760003960008181610b2e01528181610bdb0152610cc501526134626000f3fe608060405234801561001057600080fd5b50600436106101425760003560e01c806370a08231116100b8578063a22cb4651161007c578063a22cb46514610379578063b88d4fde14610395578063c87b56dd146103b1578063e425aded146103e1578063e985e9c514610411578063ed28a1221461044157610142565b806370a08231146102d157806376f6056b1461030157806395d89b411461031f57806398d5fdca1461033d5780639e87a5cd1461035b57610142565b806323b872dd1161010a57806323b872dd146101fd578063271f564d1461021957806330d871c61461023757806342842e0e146102675780636352211e146102835780636e02007d146102b357610142565b806301ffc9a71461014757806306fdde0314610177578063081812fc14610195578063095ea7b3146101c55780631e930812146101e1575b600080fd5b610161600480360381019061015c919061202d565b61045f565b60405161016e9190612075565b60405180910390f35b61017f610541565b60405161018c9190612129565b60405180910390f35b6101af60048036038101906101aa9190612181565b6105d3565b6040516101bc91906121ef565b60405180910390f35b6101df60048036038101906101da9190612236565b610619565b005b6101fb60048036038101906101f691906122ac565b610731565b005b610217600480360381019061021291906122d9565b6107a9565b005b610221610809565b60405161022e919061233b565b60405180910390f35b610251600480360381019061024c919061248b565b61080f565b60405161025e9190612129565b60405180910390f35b610281600480360381019061027c91906122d9565b61089c565b005b61029d60048036038101906102989190612181565b6108bc565b6040516102aa91906121ef565b60405180910390f35b6102bb610943565b6040516102c8919061233b565b60405180910390f35b6102eb60048036038101906102e691906124d4565b61094d565b6040516102f8919061233b565b60405180910390f35b610309610a05565b6040516103169190612129565b60405180910390f35b610327610a97565b6040516103349190612129565b60405180910390f35b610345610b29565b6040516103529190612510565b60405180910390f35b610363610bd7565b604051610370919061258a565b60405180910390f35b610393600480360381019061038e91906125d1565b610bff565b005b6103af60048036038101906103aa91906126b2565b610c15565b005b6103cb60048036038101906103c69190612181565b610c77565b6040516103d89190612129565b60405180910390f35b6103fb60048036038101906103f69190612181565b610f3f565b6040516104089190612510565b60405180910390f35b61042b60048036038101906104269190612735565b610f57565b6040516104389190612075565b60405180910390f35b610449610feb565b6040516104569190612129565b60405180910390f35b60007f80ac58cd000000000000000000000000000000000000000000000000000000007bffffffffffffffffffffffffffffffffffffffffffffffffffffffff1916827bffffffffffffffffffffffffffffffffffffffffffffffffffffffff1916148061052a57507f5b5e139f000000000000000000000000000000000000000000000000000000007bffffffffffffffffffffffffffffffffffffffffffffffffffffffff1916827bffffffffffffffffffffffffffffffffffffffffffffffffffffffff1916145b8061053a5750610539826111f6565b5b9050919050565b606060008054610550906127a4565b80601f016020809104026020016040519081016040528092919081815260200182805461057c906127a4565b80156105c95780601f1061059e576101008083540402835291602001916105c9565b820191906000526020600020905b8154815290600101906020018083116105ac57829003601f168201915b5050505050905090565b60006105de82611260565b6004600083815260200190815260200160002060009054906101000a900473ffffffffffffffffffffffffffffffffffffffff169050919050565b6000610624826108bc565b90508073ffffffffffffffffffffffffffffffffffffffff168373ffffffffffffffffffffffffffffffffffffffff161415610695576040517f08c379a000000000000000000000000000000000000000000000000000000000815260040161068c90612848565b60405180910390fd5b8073ffffffffffffffffffffffffffffffffffffffff166106b46112ab565b73ffffffffffffffffffffffffffffffffffffffff1614806106e357506106e2816106dd6112ab565b610f57565b5b610722576040517f08c379a0000000000000000000000000000000000000000000000000000000008152600401610719906128da565b60405180910390fd5b61072c83836112b3565b505050565b60016006546107409190612929565b60068190555080600a600060065481526020019081526020016000208190555061076c3360065461136c565b6006547f882d3b5a729a8bb95cf6c0083c99b42ecd9637123d4425bd7b768877fd8af8b08260405161079e9190612510565b60405180910390a250565b6107ba6107b46112ab565b8261138a565b6107f9576040517f08c379a00000000000000000000000000000000000000000000000000000000081526004016107f0906129f1565b60405180910390fd5b61080483838361141f565b505050565b60095481565b6060600061083b836040516020016108279190612a4d565b60405160208183030381529060405261107d565b90506040518060400160405280601a81526020017f646174613a696d6167652f7376672b786d6c3b6261736536342c00000000000081525081604051602001610885929190612a64565b604051602081830303815290604052915050919050565b6108b783838360405180602001604052806000815250610c15565b505050565b6000806108c883611719565b9050600073ffffffffffffffffffffffffffffffffffffffff168173ffffffffffffffffffffffffffffffffffffffff16141561093a576040517f08c379a000000000000000000000000000000000000000000000000000000000815260040161093190612ad4565b60405180910390fd5b80915050919050565b6000600654905090565b60008073ffffffffffffffffffffffffffffffffffffffff168273ffffffffffffffffffffffffffffffffffffffff1614156109be576040517f08c379a00000000000000000000000000000000000000000000000000000000081526004016109b590612b66565b60405180910390fd5b600360008373ffffffffffffffffffffffffffffffffffffffff1673ffffffffffffffffffffffffffffffffffffffff168152602001908152602001600020549050919050565b606060088054610a14906127a4565b80601f0160208091040260200160405190810160405280929190818152602001828054610a40906127a4565b8015610a8d5780601f10610a6257610100808354040283529160200191610a8d565b820191906000526020600020905b815481529060010190602001808311610a7057829003601f168201915b5050505050905090565b606060018054610aa6906127a4565b80601f0160208091040260200160405190810160405280929190818152602001828054610ad2906127a4565b8015610b1f5780601f10610af457610100808354040283529160200191610b1f565b820191906000526020600020905b815481529060010190602001808311610b0257829003601f168201915b5050505050905090565b6000807f000000000000000000000000000000000000000000000000000000000000000073ffffffffffffffffffffffffffffffffffffffff1663feaf968c6040518163ffffffff1660e01b815260040160a06040518083038186803b158015610b9257600080fd5b505afa158015610ba6573d6000803e3d6000fd5b505050506040513d601f19601f82011682018060405250810190610bca9190612bf2565b5050509150508091505090565b60007f0000000000000000000000000000000000000000000000000000000000000000905090565b610c11610c0a6112ab565b8383611756565b5050565b610c26610c206112ab565b8361138a565b610c65576040517f08c379a0000000000000000000000000000000000000000000000000000000008152600401610c5c906129f1565b60405180910390fd5b610c71848484846118c3565b50505050565b6060610c828261191f565b610cc1576040517f08c379a0000000000000000000000000000000000000000000000000000000008152600401610cb890612cb9565b60405180910390fd5b60007f000000000000000000000000000000000000000000000000000000000000000073ffffffffffffffffffffffffffffffffffffffff1663feaf968c6040518163ffffffff1660e01b815260040160a06040518083038186803b158015610d2957600080fd5b505afa158015610d3d573d6000803e3d6000fd5b505050506040513d601f19601f82011682018060405250810190610d619190612bf2565b505050915050600060078054610d76906127a4565b80601f0160208091040260200160405190810160405280929190818152602001828054610da2906127a4565b8015610def5780601f10610dc457610100808354040283529160200191610def565b820191906000526020600020905b815481529060010190602001808311610dd257829003601f168201915b50505050509050600a6000858152602001908152602001600020548212610edd57610e4f6040518060400160405280600681526020017f626262363637000000000000000000000000000000000000000000000000000081525083611960565b60088054610e5c906127a4565b80601f0160208091040260200160405190810160405280929190818152602001828054610e88906127a4565b8015610ed55780601f10610eaa57610100808354040283529160200191610ed5565b820191906000526020600020905b815481529060010190602001808311610eb857829003601f168201915b505050505090505b610ee56119fc565b610f16610ef0610541565b83604051602001610f02929190612ea1565b60405160208183030381529060405261107d565b604051602001610f27929190612a64565b60405160208183030381529060405292505050919050565b600a6020528060005260406000206000915090505481565b6000600560008473ffffffffffffffffffffffffffffffffffffffff1673ffffffffffffffffffffffffffffffffffffffff16815260200190815260200160002060008373ffffffffffffffffffffffffffffffffffffffff1673ffffffffffffffffffffffffffffffffffffffff16815260200190815260200160002060009054906101000a900460ff16905092915050565b606060078054610ffa906127a4565b80601f0160208091040260200160405190810160405280929190818152602001828054611026906127a4565b80156110735780601f1061104857610100808354040283529160200191611073565b820191906000526020600020905b81548152906001019060200180831161105657829003601f168201915b5050505050905090565b60606000825114156110a0576040518060200160405280600081525090506111f1565b60006040518060600160405280604081526020016133ed60409139905060006003600285516110cf9190612929565b6110d99190612f20565b60046110e59190612f51565b905060006020826110f69190612929565b67ffffffffffffffff81111561110f5761110e612360565b5b6040519080825280601f01601f1916602001820160405280156111415781602001600182028036833780820191505090505b509050818152600183018586518101602084015b818310156111b0576003830192508251603f8160121c168501518253600182019150603f81600c1c168501518253600182019150603f8160061c168501518253600182019150603f8116850151825360018201915050611155565b6003895106600181146111ca57600281146111da576111e5565b613d3d60f01b60028303526111e5565b603d60f81b60018303525b50505050508093505050505b919050565b60007f01ffc9a7000000000000000000000000000000000000000000000000000000007bffffffffffffffffffffffffffffffffffffffffffffffffffffffff1916827bffffffffffffffffffffffffffffffffffffffffffffffffffffffff1916149050919050565b6112698161191f565b6112a8576040517f08c379a000000000000000000000000000000000000000000000000000000000815260040161129f90612ad4565b60405180910390fd5b50565b600033905090565b816004600083815260200190815260200160002060006101000a81548173ffffffffffffffffffffffffffffffffffffffff021916908373ffffffffffffffffffffffffffffffffffffffff160217905550808273ffffffffffffffffffffffffffffffffffffffff16611326836108bc565b73ffffffffffffffffffffffffffffffffffffffff167f8c5be1e5ebec7d5bd14f71427d1e84f3dd0314c0f7b2291e5b200ac8c7c3b92560405160405180910390a45050565b611386828260405180602001604052806000815250611a39565b5050565b600080611396836108bc565b90508073ffffffffffffffffffffffffffffffffffffffff168473ffffffffffffffffffffffffffffffffffffffff1614806113d857506113d78185610f57565b5b8061141657508373ffffffffffffffffffffffffffffffffffffffff166113fe846105d3565b73ffffffffffffffffffffffffffffffffffffffff16145b91505092915050565b8273ffffffffffffffffffffffffffffffffffffffff1661143f826108bc565b73ffffffffffffffffffffffffffffffffffffffff1614611495576040517f08c379a000000000000000000000000000000000000000000000000000000000815260040161148c9061301d565b60405180910390fd5b600073ffffffffffffffffffffffffffffffffffffffff168273ffffffffffffffffffffffffffffffffffffffff161415611505576040517f08c379a00000000000000000000000000000000000000000000000000000000081526004016114fc906130af565b60405180910390fd5b6115128383836001611a94565b8273ffffffffffffffffffffffffffffffffffffffff16611532826108bc565b73ffffffffffffffffffffffffffffffffffffffff1614611588576040517f08c379a000000000000000000000000000000000000000000000000000000000815260040161157f9061301d565b60405180910390fd5b6004600082815260200190815260200160002060006101000a81549073ffffffffffffffffffffffffffffffffffffffff02191690556001600360008573ffffffffffffffffffffffffffffffffffffffff1673ffffffffffffffffffffffffffffffffffffffff168152602001908152602001600020600082825403925050819055506001600360008473ffffffffffffffffffffffffffffffffffffffff1673ffffffffffffffffffffffffffffffffffffffff16815260200190815260200160002060008282540192505081905550816002600083815260200190815260200160002060006101000a81548173ffffffffffffffffffffffffffffffffffffffff021916908373ffffffffffffffffffffffffffffffffffffffff160217905550808273ffffffffffffffffffffffffffffffffffffffff168473ffffffffffffffffffffffffffffffffffffffff167fddf252ad1be2c89b69c2b068fc378daa952ba7f163c4a11628f55a4df523b3ef60405160405180910390a46117148383836001611bba565b505050565b60006002600083815260200190815260200160002060009054906101000a900473ffffffffffffffffffffffffffffffffffffffff169050919050565b8173ffffffffffffffffffffffffffffffffffffffff168373ffffffffffffffffffffffffffffffffffffffff1614156117c5576040517f08c379a00000000000000000000000000000000000000000000000000000000081526004016117bc9061311b565b60405180910390fd5b80600560008573ffffffffffffffffffffffffffffffffffffffff1673ffffffffffffffffffffffffffffffffffffffff16815260200190815260200160002060008473ffffffffffffffffffffffffffffffffffffffff1673ffffffffffffffffffffffffffffffffffffffff16815260200190815260200160002060006101000a81548160ff0219169083151502179055508173ffffffffffffffffffffffffffffffffffffffff168373ffffffffffffffffffffffffffffffffffffffff167f17307eab39ab6107e8899845ad3d59bd9653f200f220920489ca2b5937696c31836040516118b69190612075565b60405180910390a3505050565b6118ce84848461141f565b6118da84848484611bc0565b611919576040517f08c379a0000000000000000000000000000000000000000000000000000000008152600401611910906131ad565b60405180910390fd5b50505050565b60008073ffffffffffffffffffffffffffffffffffffffff1661194183611719565b73ffffffffffffffffffffffffffffffffffffffff1614159050919050565b6119f882826040516024016119769291906131cd565b6040516020818303038152906040527fb60e72cc000000000000000000000000000000000000000000000000000000007bffffffffffffffffffffffffffffffffffffffffffffffffffffffff19166020820180517bffffffffffffffffffffffffffffffffffffffffffffffffffffffff8381831617835250505050611d57565b5050565b60606040518060400160405280601d81526020017f646174613a6170706c69636174696f6e2f6a736f6e3b6261736536342c000000815250905090565b611a438383611d80565b611a506000848484611bc0565b611a8f576040517f08c379a0000000000000000000000000000000000000000000000000000000008152600401611a86906131ad565b60405180910390fd5b505050565b6001811115611bb457600073ffffffffffffffffffffffffffffffffffffffff168473ffffffffffffffffffffffffffffffffffffffff1614611b285780600360008673ffffffffffffffffffffffffffffffffffffffff1673ffffffffffffffffffffffffffffffffffffffff1681526020019081526020016000206000828254611b2091906131fd565b925050819055505b600073ffffffffffffffffffffffffffffffffffffffff168373ffffffffffffffffffffffffffffffffffffffff1614611bb35780600360008573ffffffffffffffffffffffffffffffffffffffff1673ffffffffffffffffffffffffffffffffffffffff1681526020019081526020016000206000828254611bab9190612929565b925050819055505b5b50505050565b50505050565b6000611be18473ffffffffffffffffffffffffffffffffffffffff16611f9e565b15611d4a578373ffffffffffffffffffffffffffffffffffffffff1663150b7a02611c0a6112ab565b8786866040518563ffffffff1660e01b8152600401611c2c9493929190613286565b602060405180830381600087803b158015611c4657600080fd5b505af1925050508015611c7757506040513d601f19601f82011682018060405250810190611c7491906132e7565b60015b611cfa573d8060008114611ca7576040519150601f19603f3d011682016040523d82523d6000602084013e611cac565b606091505b50600081511415611cf2576040517f08c379a0000000000000000000000000000000000000000000000000000000008152600401611ce9906131ad565b60405180910390fd5b805181602001fd5b63150b7a0260e01b7bffffffffffffffffffffffffffffffffffffffffffffffffffffffff1916817bffffffffffffffffffffffffffffffffffffffffffffffffffffffff191614915050611d4f565b600190505b949350505050565b60008151905060006a636f6e736f6c652e6c6f679050602083016000808483855afa5050505050565b600073ffffffffffffffffffffffffffffffffffffffff168273ffffffffffffffffffffffffffffffffffffffff161415611df0576040517f08c379a0000000000000000000000000000000000000000000000000000000008152600401611de790613360565b60405180910390fd5b611df98161191f565b15611e39576040517f08c379a0000000000000000000000000000000000000000000000000000000008152600401611e30906133cc565b60405180910390fd5b611e47600083836001611a94565b611e508161191f565b15611e90576040517f08c379a0000000000000000000000000000000000000000000000000000000008152600401611e87906133cc565b60405180910390fd5b6001600360008473ffffffffffffffffffffffffffffffffffffffff1673ffffffffffffffffffffffffffffffffffffffff16815260200190815260200160002060008282540192505081905550816002600083815260200190815260200160002060006101000a81548173ffffffffffffffffffffffffffffffffffffffff021916908373ffffffffffffffffffffffffffffffffffffffff160217905550808273ffffffffffffffffffffffffffffffffffffffff16600073ffffffffffffffffffffffffffffffffffffffff167fddf252ad1be2c89b69c2b068fc378daa952ba7f163c4a11628f55a4df523b3ef60405160405180910390a4611f9a600083836001611bba565b5050565b6000808273ffffffffffffffffffffffffffffffffffffffff163b119050919050565b6000604051905090565b600080fd5b600080fd5b60007fffffffff0000000000000000000000000000000000000000000000000000000082169050919050565b61200a81611fd5565b811461201557600080fd5b50565b60008135905061202781612001565b92915050565b60006020828403121561204357612042611fcb565b5b600061205184828501612018565b91505092915050565b60008115159050919050565b61206f8161205a565b82525050565b600060208201905061208a6000830184612066565b92915050565b600081519050919050565b600082825260208201905092915050565b60005b838110156120ca5780820151818401526020810190506120af565b838111156120d9576000848401525b50505050565b6000601f19601f8301169050919050565b60006120fb82612090565b612105818561209b565b93506121158185602086016120ac565b61211e816120df565b840191505092915050565b6000602082019050818103600083015261214381846120f0565b905092915050565b6000819050919050565b61215e8161214b565b811461216957600080fd5b50565b60008135905061217b81612155565b92915050565b60006020828403121561219757612196611fcb565b5b60006121a58482850161216c565b91505092915050565b600073ffffffffffffffffffffffffffffffffffffffff82169050919050565b60006121d9826121ae565b9050919050565b6121e9816121ce565b82525050565b600060208201905061220460008301846121e0565b92915050565b612213816121ce565b811461221e57600080fd5b50565b6000813590506122308161220a565b92915050565b6000806040838503121561224d5761224c611fcb565b5b600061225b85828601612221565b925050602061226c8582860161216c565b9150509250929050565b6000819050919050565b61228981612276565b811461229457600080fd5b50565b6000813590506122a681612280565b92915050565b6000602082840312156122c2576122c1611fcb565b5b60006122d084828501612297565b91505092915050565b6000806000606084860312156122f2576122f1611fcb565b5b600061230086828701612221565b935050602061231186828701612221565b92505060406123228682870161216c565b9150509250925092565b6123358161214b565b82525050565b6000602082019050612350600083018461232c565b92915050565b600080fd5b600080fd5b7f4e487b7100000000000000000000000000000000000000000000000000000000600052604160045260246000fd5b612398826120df565b810181811067ffffffffffffffff821117156123b7576123b6612360565b5b80604052505050565b60006123ca611fc1565b90506123d6828261238f565b919050565b600067ffffffffffffffff8211156123f6576123f5612360565b5b6123ff826120df565b9050602081019050919050565b82818337600083830152505050565b600061242e612429846123db565b6123c0565b90508281526020810184848401111561244a5761244961235b565b5b61245584828561240c565b509392505050565b600082601f83011261247257612471612356565b5b813561248284826020860161241b565b91505092915050565b6000602082840312156124a1576124a0611fcb565b5b600082013567ffffffffffffffff8111156124bf576124be611fd0565b5b6124cb8482850161245d565b91505092915050565b6000602082840312156124ea576124e9611fcb565b5b60006124f884828501612221565b91505092915050565b61250a81612276565b82525050565b60006020820190506125256000830184612501565b92915050565b6000819050919050565b600061255061254b612546846121ae565b61252b565b6121ae565b9050919050565b600061256282612535565b9050919050565b600061257482612557565b9050919050565b61258481612569565b82525050565b600060208201905061259f600083018461257b565b92915050565b6125ae8161205a565b81146125b957600080fd5b50565b6000813590506125cb816125a5565b92915050565b600080604083850312156125e8576125e7611fcb565b5b60006125f685828601612221565b9250506020612607858286016125bc565b9150509250929050565b600067ffffffffffffffff82111561262c5761262b612360565b5b612635826120df565b9050602081019050919050565b600061265561265084612611565b6123c0565b9050828152602081018484840111156126715761267061235b565b5b61267c84828561240c565b509392505050565b600082601f83011261269957612698612356565b5b81356126a9848260208601612642565b91505092915050565b600080600080608085870312156126cc576126cb611fcb565b5b60006126da87828801612221565b94505060206126eb87828801612221565b93505060406126fc8782880161216c565b925050606085013567ffffffffffffffff81111561271d5761271c611fd0565b5b61272987828801612684565b91505092959194509250565b6000806040838503121561274c5761274b611fcb565b5b600061275a85828601612221565b925050602061276b85828601612221565b9150509250929050565b7f4e487b7100000000000000000000000000000000000000000000000000000000600052602260045260246000fd5b600060028204905060018216806127bc57607f821691505b602082108114156127d0576127cf612775565b5b50919050565b7f4552433732313a20617070726f76616c20746f2063757272656e74206f776e6560008201527f7200000000000000000000000000000000000000000000000000000000000000602082015250565b600061283260218361209b565b915061283d826127d6565b604082019050919050565b6000602082019050818103600083015261286181612825565b9050919050565b7f4552433732313a20617070726f76652063616c6c6572206973206e6f7420746f60008201527f6b656e206f776e6572206f7220617070726f76656420666f7220616c6c000000602082015250565b60006128c4603d8361209b565b91506128cf82612868565b604082019050919050565b600060208201905081810360008301526128f3816128b7565b9050919050565b7f4e487b7100000000000000000000000000000000000000000000000000000000600052601160045260246000fd5b60006129348261214b565b915061293f8361214b565b9250827fffffffffffffffffffffffffffffffffffffffffffffffffffffffffffffffff03821115612974576129736128fa565b5b828201905092915050565b7f4552433732313a2063616c6c6572206973206e6f7420746f6b656e206f776e6560008201527f72206f7220617070726f76656400000000000000000000000000000000000000602082015250565b60006129db602d8361209b565b91506129e68261297f565b604082019050919050565b60006020820190508181036000830152612a0a816129ce565b9050919050565b600081905092915050565b6000612a2782612090565b612a318185612a11565b9350612a418185602086016120ac565b80840191505092915050565b6000612a598284612a1c565b915081905092915050565b6000612a708285612a1c565b9150612a7c8284612a1c565b91508190509392505050565b7f4552433732313a20696e76616c696420746f6b656e2049440000000000000000600082015250565b6000612abe60188361209b565b9150612ac982612a88565b602082019050919050565b60006020820190508181036000830152612aed81612ab1565b9050919050565b7f4552433732313a2061646472657373207a65726f206973206e6f74206120766160008201527f6c6964206f776e65720000000000000000000000000000000000000000000000602082015250565b6000612b5060298361209b565b9150612b5b82612af4565b604082019050919050565b60006020820190508181036000830152612b7f81612b43565b9050919050565b600069ffffffffffffffffffff82169050919050565b612ba581612b86565b8114612bb057600080fd5b50565b600081519050612bc281612b9c565b92915050565b600081519050612bd781612280565b92915050565b600081519050612bec81612155565b92915050565b600080600080600060a08688031215612c0e57612c0d611fcb565b5b6000612c1c88828901612bb3565b9550506020612c2d88828901612bc8565b9450506040612c3e88828901612bdd565b9350506060612c4f88828901612bdd565b9250506080612c6088828901612bb3565b9150509295509295909350565b7f55524920517565727920666f72206e6f6e6578697374656e7420746f6b656e00600082015250565b6000612ca3601f8361209b565b9150612cae82612c6d565b602082019050919050565b60006020820190508181036000830152612cd281612c96565b9050919050565b7f7b226e616d65223a220000000000000000000000000000000000000000000000600082015250565b6000612d0f600983612a11565b9150612d1a82612cd9565b600982019050919050565b7f222c20226465736372697074696f6e223a22416e204e4654207468617420636860008201527f616e676573206261736564206f6e2074686520436861696e6c696e6b2046656560208201527f64222c0000000000000000000000000000000000000000000000000000000000604082015250565b6000612da7604383612a11565b9150612db282612d25565b604382019050919050565b7f2261747472696275746573223a205b7b2274726169745f74797065223a20226360008201527f6f6f6c6e657373222c202276616c7565223a203130307d5d2c2022696d61676560208201527f223a220000000000000000000000000000000000000000000000000000000000604082015250565b6000612e3f604383612a11565b9150612e4a82612dbd565b604382019050919050565b7f227d000000000000000000000000000000000000000000000000000000000000600082015250565b6000612e8b600283612a11565b9150612e9682612e55565b600282019050919050565b6000612eac82612d02565b9150612eb88285612a1c565b9150612ec382612d9a565b9150612ece82612e32565b9150612eda8284612a1c565b9150612ee582612e7e565b91508190509392505050565b7f4e487b7100000000000000000000000000000000000000000000000000000000600052601260045260246000fd5b6000612f2b8261214b565b9150612f368361214b565b925082612f4657612f45612ef1565b5b828204905092915050565b6000612f5c8261214b565b9150612f678361214b565b9250817fffffffffffffffffffffffffffffffffffffffffffffffffffffffffffffffff0483118215151615612fa057612f9f6128fa565b5b828202905092915050565b7f4552433732313a207472616e736665722066726f6d20696e636f72726563742060008201527f6f776e6572000000000000000000000000000000000000000000000000000000602082015250565b600061300760258361209b565b915061301282612fab565b604082019050919050565b6000602082019050818103600083015261303681612ffa565b9050919050565b7f4552433732313a207472616e7366657220746f20746865207a65726f2061646460008201527f7265737300000000000000000000000000000000000000000000000000000000602082015250565b600061309960248361209b565b91506130a48261303d565b604082019050919050565b600060208201905081810360008301526130c88161308c565b9050919050565b7f4552433732313a20617070726f766520746f2063616c6c657200000000000000600082015250565b600061310560198361209b565b9150613110826130cf565b602082019050919050565b60006020820190508181036000830152613134816130f8565b9050919050565b7f4552433732313a207472616e7366657220746f206e6f6e20455243373231526560008201527f63656976657220696d706c656d656e7465720000000000000000000000000000602082015250565b600061319760328361209b565b91506131a28261313b565b604082019050919050565b600060208201905081810360008301526131c68161318a565b9050919050565b600060408201905081810360008301526131e781856120f0565b90506131f6602083018461232c565b9392505050565b60006132088261214b565b91506132138361214b565b925082821015613226576132256128fa565b5b828203905092915050565b600081519050919050565b600082825260208201905092915050565b600061325882613231565b613262818561323c565b93506132728185602086016120ac565b61327b816120df565b840191505092915050565b600060808201905061329b60008301876121e0565b6132a860208301866121e0565b6132b5604083018561232c565b81810360608301526132c7818461324d565b905095945050505050565b6000815190506132e181612001565b92915050565b6000602082840312156132fd576132fc611fcb565b5b600061330b848285016132d2565b91505092915050565b7f4552433732313a206d696e7420746f20746865207a65726f2061646472657373600082015250565b600061334a60208361209b565b915061335582613314565b602082019050919050565b600060208201905081810360008301526133798161333d565b9050919050565b7f4552433732313a20746f6b656e20616c7265616479206d696e74656400000000600082015250565b60006133b6601c8361209b565b91506133c182613380565b602082019050919050565b600060208201905081810360008301526133e5816133a9565b905091905056fe4142434445464748494a4b4c4d4e4f505152535455565758595a6162636465666768696a6b6c6d6e6f707172737475767778797a303132333435363738392b2fa26469706673582212208781936a65927efd6ab4b224e6158c0cf123aaef2a4eaf92442ad8ad1211d9da64736f6c634300080800334142434445464748494a4b4c4d4e4f505152535455565758595a6162636465666768696a6b6c6d6e6f707172737475767778797a303132333435363738392b2f",
  "linkReferences": {},
  "deployedLinkReferences": {}
}