{
  "_format": "hh-sol-artifact-1",
  "contractName": "RandomIpfsNft",
  "sourceName": "contracts/RandomIpfsNft.sol",
  "abi": [
    {
      "inputs": [
        {
          "internalType": "address",
          "name": "vrfCoordinatorV2",
          "type": "address"
        },
        {
          "internalType": "uint64",
          "name": "subscriptionId",
          "type": "uint64"
        },
        {
          "internalType": "bytes32",
          "name": "gasLane",
          "type": "bytes32"
        },
        {
          "internalType": "uint32",
          "name": "callbackGasLimit",
          "type": "uint32"
        },
        {
          "internalType": "string[3]",
          "name": "dogTokenUris",
          "type": "string[3]"
        },
        {
          "internalType": "uint256",
          "name": "mintFee",
          "type": "uint256"
        }
      ],
      "stateMutability": "nonpayable",
      "type": "constructor"
    },
    {
      "inputs": [
        {
          "internalType": "address",
          "name": "have",
          "type": "address"
        },
        {
          "internalType": "address",
          "name": "want",
          "type": "address"
        }
      ],
      "name": "OnlyCoordinatorCanFulfill",
      "type": "error"
    },
    {
      "inputs": [],
      "name": "RandomIpfsNft__AlreadyInitialized",
      "type": "error"
    },
    {
      "inputs": [],
      "name": "RandomIpfsNft__NeedMoreEthSent",
      "type": "error"
    },
    {
      "inputs": [],
      "name": "RandomIpfsNft__RangeOutOfBounds",
      "type": "error"
    },
    {
      "inputs": [],
      "name": "RandomIpfsNft__TransferFailed",
      "type": "error"
    },
    {
      "anonymous": false,
      "inputs": [
        {
          "indexed": true,
          "internalType": "address",
          "name": "owner",
          "type": "address"
        },
        {
          "indexed": true,
          "internalType": "address",
          "name": "approved",
          "type": "address"
        },
        {
          "indexed": true,
          "internalType": "uint256",
          "name": "tokenId",
          "type": "uint256"
        }
      ],
      "name": "Approval",
      "type": "event"
    },
    {
      "anonymous": false,
      "inputs": [
        {
          "indexed": true,
          "internalType": "address",
          "name": "owner",
          "type": "address"
        },
        {
          "indexed": true,
          "internalType": "address",
          "name": "operator",
          "type": "address"
        },
        {
          "indexed": false,
          "internalType": "bool",
          "name": "approved",
          "type": "bool"
        }
      ],
      "name": "ApprovalForAll",
      "type": "event"
    },
    {
      "anonymous": false,
      "inputs": [
        {
          "indexed": false,
          "internalType": "enum RandomIpfsNft.Breed",
          "name": "dogBreed",
          "type": "uint8"
        },
        {
          "indexed": false,
          "internalType": "address",
          "name": "minter",
          "type": "address"
        }
      ],
      "name": "NftMinted",
      "type": "event"
    },
    {
      "anonymous": false,
      "inputs": [
        {
          "indexed": true,
          "internalType": "uint256",
          "name": "requestId",
          "type": "uint256"
        },
        {
          "indexed": false,
          "internalType": "address",
          "name": "requester",
          "type": "address"
        }
      ],
      "name": "NftRequested",
      "type": "event"
    },
    {
      "anonymous": false,
      "inputs": [
        {
          "indexed": true,
          "internalType": "address",
          "name": "previousOwner",
          "type": "address"
        },
        {
          "indexed": true,
          "internalType": "address",
          "name": "newOwner",
          "type": "address"
        }
      ],
      "name": "OwnershipTransferred",
      "type": "event"
    },
    {
      "anonymous": false,
      "inputs": [
        {
          "indexed": true,
          "internalType": "address",
          "name": "from",
          "type": "address"
        },
        {
          "indexed": true,
          "internalType": "address",
          "name": "to",
          "type": "address"
        },
        {
          "indexed": true,
          "internalType": "uint256",
          "name": "tokenId",
          "type": "uint256"
        }
      ],
      "name": "Transfer",
      "type": "event"
    },
    {
      "inputs": [
        {
          "internalType": "address",
          "name": "to",
          "type": "address"
        },
        {
          "internalType": "uint256",
          "name": "tokenId",
          "type": "uint256"
        }
      ],
      "name": "approve",
      "outputs": [],
      "stateMutability": "nonpayable",
      "type": "function"
    },
    {
      "inputs": [
        {
          "internalType": "address",
          "name": "owner",
          "type": "address"
        }
      ],
      "name": "balanceOf",
      "outputs": [
        {
          "internalType": "uint256",
          "name": "",
          "type": "uint256"
        }
      ],
      "stateMutability": "view",
      "type": "function"
    },
    {
      "inputs": [
        {
          "internalType": "uint256",
          "name": "tokenId",
          "type": "uint256"
        }
      ],
      "name": "getApproved",
      "outputs": [
        {
          "internalType": "address",
          "name": "",
          "type": "address"
        }
      ],
      "stateMutability": "view",
      "type": "function"
    },
    {
      "inputs": [
        {
          "internalType": "uint256",
          "name": "moddedRng",
          "type": "uint256"
        }
      ],
      "name": "getBreedFromModdedRng",
      "outputs": [
        {
          "internalType": "enum RandomIpfsNft.Breed",
          "name": "",
          "type": "uint8"
        }
      ],
      "stateMutability": "pure",
      "type": "function"
    },
    {
      "inputs": [],
      "name": "getChanceArray",
      "outputs": [
        {
          "internalType": "uint256[3]",
          "name": "",
          "type": "uint256[3]"
        }
      ],
      "stateMutability": "pure",
      "type": "function"
    },
    {
      "inputs": [
        {
          "internalType": "uint256",
          "name": "index",
          "type": "uint256"
        }
      ],
      "name": "getDogTokenUris",
      "outputs": [
        {
          "internalType": "string",
          "name": "",
          "type": "string"
        }
      ],
      "stateMutability": "view",
      "type": "function"
    },
    {
      "inputs": [],
      "name": "getInitialized",
      "outputs": [
        {
          "internalType": "bool",
          "name": "",
          "type": "bool"
        }
      ],
      "stateMutability": "view",
      "type": "function"
    },
    {
      "inputs": [],
      "name": "getMintFee",
      "outputs": [
        {
          "internalType": "uint256",
          "name": "",
          "type": "uint256"
        }
      ],
      "stateMutability": "view",
      "type": "function"
    },
    {
      "inputs": [],
      "name": "getTokenCounter",
      "outputs": [
        {
          "internalType": "uint256",
          "name": "",
          "type": "uint256"
        }
      ],
      "stateMutability": "view",
      "type": "function"
    },
    {
      "inputs": [
        {
          "internalType": "address",
          "name": "owner",
          "type": "address"
        },
        {
          "internalType": "address",
          "name": "operator",
          "type": "address"
        }
      ],
      "name": "isApprovedForAll",
      "outputs": [
        {
          "internalType": "bool",
          "name": "",
          "type": "bool"
        }
      ],
      "stateMutability": "view",
      "type": "function"
    },
    {
      "inputs": [],
      "name": "name",
      "outputs": [
        {
          "internalType": "string",
          "name": "",
          "type": "string"
        }
      ],
      "stateMutability": "view",
      "type": "function"
    },
    {
      "inputs": [],
      "name": "owner",
      "outputs": [
        {
          "internalType": "address",
          "name": "",
          "type": "address"
        }
      ],
      "stateMutability": "view",
      "type": "function"
    },
    {
      "inputs": [
        {
          "internalType": "uint256",
          "name": "tokenId",
          "type": "uint256"
        }
      ],
      "name": "ownerOf",
      "outputs": [
        {
          "internalType": "address",
          "name": "",
          "type": "address"
        }
      ],
      "stateMutability": "view",
      "type": "function"
    },
    {
      "inputs": [
        {
          "internalType": "uint256",
          "name": "requestId",
          "type": "uint256"
        },
        {
          "internalType": "uint256[]",
          "name": "randomWords",
          "type": "uint256[]"
        }
      ],
      "name": "rawFulfillRandomWords",
      "outputs": [],
      "stateMutability": "nonpayable",
      "type": "function"
    },
    {
      "inputs": [],
      "name": "renounceOwnership",
      "outputs": [],
      "stateMutability": "nonpayable",
      "type": "function"
    },
    {
      "inputs": [],
      "name": "requestNft",
      "outputs": [
        {
          "internalType": "uint256",
          "name": "requestId",
          "type": "uint256"
        }
      ],
      "stateMutability": "payable",
      "type": "function"
    },
    {
      "inputs": [
        {
          "internalType": "uint256",
          "name": "",
          "type": "uint256"
        }
      ],
      "name": "s_requestIdToSender",
      "outputs": [
        {
          "internalType": "address",
          "name": "",
          "type": "address"
        }
      ],
      "stateMutability": "view",
      "type": "function"
    },
    {
      "inputs": [],
      "name": "s_tokenCounter",
      "outputs": [
        {
          "internalType": "uint256",
          "name": "",
          "type": "uint256"
        }
      ],
      "stateMutability": "view",
      "type": "function"
    },
    {
      "inputs": [
        {
          "internalType": "address",
          "name": "from",
          "type": "address"
        },
        {
          "internalType": "address",
          "name": "to",
          "type": "address"
        },
        {
          "internalType": "uint256",
          "name": "tokenId",
          "type": "uint256"
        }
      ],
      "name": "safeTransferFrom",
      "outputs": [],
      "stateMutability": "nonpayable",
      "type": "function"
    },
    {
      "inputs": [
        {
          "internalType": "address",
          "name": "from",
          "type": "address"
        },
        {
          "internalType": "address",
          "name": "to",
          "type": "address"
        },
        {
          "internalType": "uint256",
          "name": "tokenId",
          "type": "uint256"
        },
        {
          "internalType": "bytes",
          "name": "data",
          "type": "bytes"
        }
      ],
      "name": "safeTransferFrom",
      "outputs": [],
      "stateMutability": "nonpayable",
      "type": "function"
    },
    {
      "inputs": [
        {
          "internalType": "address",
          "name": "operator",
          "type": "address"
        },
        {
          "internalType": "bool",
          "name": "approved",
          "type": "bool"
        }
      ],
      "name": "setApprovalForAll",
      "outputs": [],
      "stateMutability": "nonpayable",
      "type": "function"
    },
    {
      "inputs": [
        {
          "internalType": "bytes4",
          "name": "interfaceId",
          "type": "bytes4"
        }
      ],
      "name": "supportsInterface",
      "outputs": [
        {
          "internalType": "bool",
          "name": "",
          "type": "bool"
        }
      ],
      "stateMutability": "view",
      "type": "function"
    },
    {
      "inputs": [],
      "name": "symbol",
      "outputs": [
        {
          "internalType": "string",
          "name": "",
          "type": "string"
        }
      ],
      "stateMutability": "view",
      "type": "function"
    },
    {
      "inputs": [
        {
          "internalType": "uint256",
          "name": "tokenId",
          "type": "uint256"
        }
      ],
      "name": "tokenURI",
      "outputs": [
        {
          "internalType": "string",
          "name": "",
          "type": "string"
        }
      ],
      "stateMutability": "view",
      "type": "function"
    },
    {
      "inputs": [
        {
          "internalType": "address",
          "name": "from",
          "type": "address"
        },
        {
          "internalType": "address",
          "name": "to",
          "type": "address"
        },
        {
          "internalType": "uint256",
          "name": "tokenId",
          "type": "uint256"
        }
      ],
      "name": "transferFrom",
      "outputs": [],
      "stateMutability": "nonpayable",
      "type": "function"
    },
    {
      "inputs": [
        {
          "internalType": "address",
          "name": "newOwner",
          "type": "address"
        }
      ],
      "name": "transferOwnership",
      "outputs": [],
      "stateMutability": "nonpayable",
      "type": "function"
    },
    {
      "inputs": [],
      "name": "withdraw",
      "outputs": [],
      "stateMutability": "nonpayable",
      "type": "function"
    }
  ],
  "bytecode": "0x6101206040523480156200001257600080fd5b506040516200474738038062004747833981810160405281019062000038919062000880565b6040518060400160405280600f81526020017f52616e646f6d2049504653204e465400000000000000000000000000000000008152506040518060400160405280600381526020017f52494e0000000000000000000000000000000000000000000000000000000000815250878073ffffffffffffffffffffffffffffffffffffffff1660808173ffffffffffffffffffffffffffffffffffffffff1660601b81525050508160009080519060200190620000f592919062000313565b5080600190805190602001906200010e92919062000313565b5050506200013162000125620001cb60201b60201c565b620001d360201b60201c565b8573ffffffffffffffffffffffffffffffffffffffff1660a08173ffffffffffffffffffffffffffffffffffffffff1660601b815250508467ffffffffffffffff1660c08167ffffffffffffffff1660c01b815250508360e081815250508263ffffffff166101008163ffffffff1660e01b81525050620001b8826200029960201b60201c565b80600b81905550505050505050620009a0565b600033905090565b6000600760009054906101000a900473ffffffffffffffffffffffffffffffffffffffff16905081600760006101000a81548173ffffffffffffffffffffffffffffffffffffffff021916908373ffffffffffffffffffffffffffffffffffffffff1602179055508173ffffffffffffffffffffffffffffffffffffffff168173ffffffffffffffffffffffffffffffffffffffff167f8be0079c531659141344cd1fd0a4f28419497f9722a3daafe3b4186f6b6457e060405160405180910390a35050565b600c60009054906101000a900460ff1615620002e1576040517fddf8bf7000000000000000000000000000000000000000000000000000000000815260040160405180910390fd5b80600a906003620002f4929190620003a4565b506001600c60006101000a81548160ff02191690831515021790555050565b82805462000321906200096a565b90600052602060002090601f01602090048101928262000345576000855562000391565b82601f106200036057805160ff191683800117855562000391565b8280016001018555821562000391579182015b828111156200039057825182559160200191906001019062000373565b5b509050620003a091906200040b565b5090565b828054828255906000526020600020908101928215620003f8579160200282015b82811115620003f7578251829080519060200190620003e692919062000313565b5091602001919060010190620003c5565b5b5090506200040791906200042a565b5090565b5b80821115620004265760008160009055506001016200040c565b5090565b5b808211156200044e576000818162000444919062000452565b506001016200042b565b5090565b50805462000460906200096a565b6000825580601f1062000474575062000495565b601f0160209004906000526020600020908101906200049491906200040b565b5b50565b6000604051905090565b600080fd5b600080fd5b600073ffffffffffffffffffffffffffffffffffffffff82169050919050565b6000620004d982620004ac565b9050919050565b620004eb81620004cc565b8114620004f757600080fd5b50565b6000815190506200050b81620004e0565b92915050565b600067ffffffffffffffff82169050919050565b620005308162000511565b81146200053c57600080fd5b50565b600081519050620005508162000525565b92915050565b6000819050919050565b6200056b8162000556565b81146200057757600080fd5b50565b6000815190506200058b8162000560565b92915050565b600063ffffffff82169050919050565b620005ac8162000591565b8114620005b857600080fd5b50565b600081519050620005cc81620005a1565b92915050565b600080fd5b6000601f19601f8301169050919050565b7f4e487b7100000000000000000000000000000000000000000000000000000000600052604160045260246000fd5b6200062282620005d7565b810181811067ffffffffffffffff82111715620006445762000643620005e8565b5b80604052505050565b60006200065962000498565b905062000667828262000617565b919050565b600067ffffffffffffffff8211156200068a5762000689620005e8565b5b602082029050919050565b600080fd5b600080fd5b600067ffffffffffffffff821115620006bd57620006bc620005e8565b5b620006c882620005d7565b9050602081019050919050565b60005b83811015620006f5578082015181840152602081019050620006d8565b8381111562000705576000848401525b50505050565b6000620007226200071c846200069f565b6200064d565b9050828152602081018484840111156200074157620007406200069a565b5b6200074e848285620006d5565b509392505050565b600082601f8301126200076e576200076d620005d2565b5b8151620007808482602086016200070b565b91505092915050565b6000620007a06200079a846200066c565b6200064d565b90508060208402830185811115620007bd57620007bc62000695565b5b835b818110156200080b57805167ffffffffffffffff811115620007e657620007e5620005d2565b5b808601620007f5898262000756565b85526020850194505050602081019050620007bf565b5050509392505050565b600082601f8301126200082d576200082c620005d2565b5b60036200083c84828562000789565b91505092915050565b6000819050919050565b6200085a8162000845565b81146200086657600080fd5b50565b6000815190506200087a816200084f565b92915050565b60008060008060008060c08789031215620008a0576200089f620004a2565b5b6000620008b089828a01620004fa565b9650506020620008c389828a016200053f565b9550506040620008d689828a016200057a565b9450506060620008e989828a01620005bb565b935050608087015167ffffffffffffffff8111156200090d576200090c620004a7565b5b6200091b89828a0162000815565b92505060a06200092e89828a0162000869565b9150509295509295509295565b7f4e487b7100000000000000000000000000000000000000000000000000000000600052602260045260246000fd5b600060028204905060018216806200098357607f821691505b602082108114156200099a57620009996200093b565b5b50919050565b60805160601c60a05160601c60c05160c01c60e0516101005160e01c613d4f620009f8600039600061103e01526000610ffa0152600061101b01526000610fbe01526000818161096301526109b70152613d4f6000f3fe60806040526004361061019c5760003560e01c806370a08231116100ec578063a51cccf31161008a578063c87b56dd11610064578063c87b56dd146105bb578063e985e9c5146105f8578063ee89dab414610635578063f2fde38b146106605761019c565b8063a51cccf314610537578063aa15249114610574578063b88d4fde146105925761019c565b80638da5cb5b116100c65780638da5cb5b1461047b57806395d89b41146104a6578063a22cb465146104d1578063a36f573b146104fa5761019c565b806370a08231146103fc578063715018a6146104395780637a5caab3146104505761019c565b806323b872dd1161015957806342842e0e1161013357806342842e0e146103405780635dacf5f4146103695780636352211e146103945780636e02007d146103d15761019c565b806323b872dd146102c35780633af25975146102ec5780633ccfd60b146103295761019c565b806301ffc9a7146101a157806306fdde03146101de578063081812fc14610209578063095ea7b3146102465780630b21a83b1461026f5780631fe543e31461029a575b600080fd5b3480156101ad57600080fd5b506101c860048036038101906101c391906128fe565b610689565b6040516101d59190612946565b60405180910390f35b3480156101ea57600080fd5b506101f361076b565b60405161020091906129fa565b60405180910390f35b34801561021557600080fd5b50610230600480360381019061022b9190612a52565b6107fd565b60405161023d9190612ac0565b60405180910390f35b34801561025257600080fd5b5061026d60048036038101906102689190612b07565b610843565b005b34801561027b57600080fd5b5061028461095b565b6040516102919190612b56565b60405180910390f35b3480156102a657600080fd5b506102c160048036038101906102bc9190612cb9565b610961565b005b3480156102cf57600080fd5b506102ea60048036038101906102e59190612d15565b610a21565b005b3480156102f857600080fd5b50610313600480360381019061030e9190612a52565b610a81565b60405161032091906129fa565b60405180910390f35b34801561033557600080fd5b5061033e610b31565b005b34801561034c57600080fd5b5061036760048036038101906103629190612d15565b610be5565b005b34801561037557600080fd5b5061037e610c05565b60405161038b9190612e13565b60405180910390f35b3480156103a057600080fd5b506103bb60048036038101906103b69190612a52565b610c30565b6040516103c89190612ac0565b60405180910390f35b3480156103dd57600080fd5b506103e6610cb7565b6040516103f39190612b56565b60405180910390f35b34801561040857600080fd5b50610423600480360381019061041e9190612e2e565b610cc1565b6040516104309190612b56565b60405180910390f35b34801561044557600080fd5b5061044e610d79565b005b34801561045c57600080fd5b50610465610d8d565b6040516104729190612b56565b60405180910390f35b34801561048757600080fd5b50610490610d97565b60405161049d9190612ac0565b60405180910390f35b3480156104b257600080fd5b506104bb610dc1565b6040516104c891906129fa565b60405180910390f35b3480156104dd57600080fd5b506104f860048036038101906104f39190612e87565b610e53565b005b34801561050657600080fd5b50610521600480360381019061051c9190612a52565b610e69565b60405161052e9190612ac0565b60405180910390f35b34801561054357600080fd5b5061055e60048036038101906105599190612a52565b610e9c565b60405161056b9190612f3e565b60405180910390f35b61057c610f7e565b6040516105899190612b56565b60405180910390f35b34801561059e57600080fd5b506105b960048036038101906105b4919061300e565b611160565b005b3480156105c757600080fd5b506105e260048036038101906105dd9190612a52565b6111c2565b6040516105ef91906129fa565b60405180910390f35b34801561060457600080fd5b5061061f600480360381019061061a9190613091565b6112d5565b60405161062c9190612946565b60405180910390f35b34801561064157600080fd5b5061064a611369565b6040516106579190612946565b60405180910390f35b34801561066c57600080fd5b5061068760048036038101906106829190612e2e565b611380565b005b60007f80ac58cd000000000000000000000000000000000000000000000000000000007bffffffffffffffffffffffffffffffffffffffffffffffffffffffff1916827bffffffffffffffffffffffffffffffffffffffffffffffffffffffff1916148061075457507f5b5e139f000000000000000000000000000000000000000000000000000000007bffffffffffffffffffffffffffffffffffffffffffffffffffffffff1916827bffffffffffffffffffffffffffffffffffffffffffffffffffffffff1916145b80610764575061076382611404565b5b9050919050565b60606000805461077a90613100565b80601f01602080910402602001604051908101604052809291908181526020018280546107a690613100565b80156107f35780601f106107c8576101008083540402835291602001916107f3565b820191906000526020600020905b8154815290600101906020018083116107d657829003601f168201915b5050505050905090565b60006108088261146e565b6004600083815260200190815260200160002060009054906101000a900473ffffffffffffffffffffffffffffffffffffffff169050919050565b600061084e82610c30565b90508073ffffffffffffffffffffffffffffffffffffffff168373ffffffffffffffffffffffffffffffffffffffff1614156108bf576040517f08c379a00000000000000000000000000000000000000000000000000000000081526004016108b6906131a4565b60405180910390fd5b8073ffffffffffffffffffffffffffffffffffffffff166108de6114b9565b73ffffffffffffffffffffffffffffffffffffffff16148061090d575061090c816109076114b9565b6112d5565b5b61094c576040517f08c379a000000000000000000000000000000000000000000000000000000000815260040161094390613236565b60405180910390fd5b61095683836114c1565b505050565b60095481565b7f000000000000000000000000000000000000000000000000000000000000000073ffffffffffffffffffffffffffffffffffffffff163373ffffffffffffffffffffffffffffffffffffffff1614610a1357337f00000000000000000000000000000000000000000000000000000000000000006040517f1cf993f4000000000000000000000000000000000000000000000000000000008152600401610a0a929190613256565b60405180910390fd5b610a1d828261157a565b5050565b610a32610a2c6114b9565b82611753565b610a71576040517f08c379a0000000000000000000000000000000000000000000000000000000008152600401610a68906132f1565b60405180910390fd5b610a7c8383836117e8565b505050565b6060600a8281548110610a9757610a96613311565b5b906000526020600020018054610aac90613100565b80601f0160208091040260200160405190810160405280929190818152602001828054610ad890613100565b8015610b255780601f10610afa57610100808354040283529160200191610b25565b820191906000526020600020905b815481529060010190602001808311610b0857829003601f168201915b50505050509050919050565b610b39611ae2565b600047905060003373ffffffffffffffffffffffffffffffffffffffff1682604051610b6490613371565b60006040518083038185875af1925050503d8060008114610ba1576040519150601f19603f3d011682016040523d82523d6000602084013e610ba6565b606091505b5050905080610be1576040517fca7e25b700000000000000000000000000000000000000000000000000000000815260040160405180910390fd5b5050565b610c0083838360405180602001604052806000815250611160565b505050565b610c0d6127cd565b6040518060600160405280600a8152602001601e81526020016064815250905090565b600080610c3c83611b60565b9050600073ffffffffffffffffffffffffffffffffffffffff168173ffffffffffffffffffffffffffffffffffffffff161415610cae576040517f08c379a0000000000000000000000000000000000000000000000000000000008152600401610ca5906133d2565b60405180910390fd5b80915050919050565b6000600954905090565b60008073ffffffffffffffffffffffffffffffffffffffff168273ffffffffffffffffffffffffffffffffffffffff161415610d32576040517f08c379a0000000000000000000000000000000000000000000000000000000008152600401610d2990613464565b60405180910390fd5b600360008373ffffffffffffffffffffffffffffffffffffffff1673ffffffffffffffffffffffffffffffffffffffff168152602001908152602001600020549050919050565b610d81611ae2565b610d8b6000611b9d565b565b6000600b54905090565b6000600760009054906101000a900473ffffffffffffffffffffffffffffffffffffffff16905090565b606060018054610dd090613100565b80601f0160208091040260200160405190810160405280929190818152602001828054610dfc90613100565b8015610e495780601f10610e1e57610100808354040283529160200191610e49565b820191906000526020600020905b815481529060010190602001808311610e2c57829003601f168201915b5050505050905090565b610e65610e5e6114b9565b8383611c63565b5050565b60086020528060005260406000206000915054906101000a900473ffffffffffffffffffffffffffffffffffffffff1681565b600080600090506000610ead610c05565b905060005b6003811015610f4657828510158015610eec5750818160038110610ed957610ed8613311565b5b602002015183610ee991906134b3565b85105b15610f0e57806002811115610f0457610f03612ec7565b5b9350505050610f79565b818160038110610f2157610f20613311565b5b602002015183610f3191906134b3565b92508080610f3e90613509565b915050610eb2565b506040517f12806c9d00000000000000000000000000000000000000000000000000000000815260040160405180910390fd5b919050565b6000600b54341015610fbc576040517ff64fbfee00000000000000000000000000000000000000000000000000000000815260040160405180910390fd5b7f000000000000000000000000000000000000000000000000000000000000000073ffffffffffffffffffffffffffffffffffffffff16635d3b1d307f00000000000000000000000000000000000000000000000000000000000000007f000000000000000000000000000000000000000000000000000000000000000060037f000000000000000000000000000000000000000000000000000000000000000060016040518663ffffffff1660e01b815260040161107f9594939291906135ca565b602060405180830381600087803b15801561109957600080fd5b505af11580156110ad573d6000803e3d6000fd5b505050506040513d601f19601f820116820180604052508101906110d19190613632565b9050336008600083815260200190815260200160002060006101000a81548173ffffffffffffffffffffffffffffffffffffffff021916908373ffffffffffffffffffffffffffffffffffffffff160217905550807ff873236e6cc0ecc5be1a9a35c95ee5b8d1ac4cc7bfef0cc5060391d6cc98e26b336040516111559190612ac0565b60405180910390a290565b61117161116b6114b9565b83611753565b6111b0576040517f08c379a00000000000000000000000000000000000000000000000000000000081526004016111a7906132f1565b60405180910390fd5b6111bc84848484611dd0565b50505050565b60606111cd8261146e565b60006006600084815260200190815260200160002080546111ed90613100565b80601f016020809104026020016040519081016040528092919081815260200182805461121990613100565b80156112665780601f1061123b57610100808354040283529160200191611266565b820191906000526020600020905b81548152906001019060200180831161124957829003601f168201915b505050505090506000611277611e2c565b905060008151141561128d5781925050506112d0565b6000825111156112c25780826040516020016112aa92919061369b565b604051602081830303815290604052925050506112d0565b6112cb84611e43565b925050505b919050565b6000600560008473ffffffffffffffffffffffffffffffffffffffff1673ffffffffffffffffffffffffffffffffffffffff16815260200190815260200160002060008373ffffffffffffffffffffffffffffffffffffffff1673ffffffffffffffffffffffffffffffffffffffff16815260200190815260200160002060009054906101000a900460ff16905092915050565b6000600c60009054906101000a900460ff16905090565b611388611ae2565b600073ffffffffffffffffffffffffffffffffffffffff168173ffffffffffffffffffffffffffffffffffffffff1614156113f8576040517f08c379a00000000000000000000000000000000000000000000000000000000081526004016113ef90613731565b60405180910390fd5b61140181611b9d565b50565b60007f01ffc9a7000000000000000000000000000000000000000000000000000000007bffffffffffffffffffffffffffffffffffffffffffffffffffffffff1916827bffffffffffffffffffffffffffffffffffffffffffffffffffffffff1916149050919050565b61147781611eab565b6114b6576040517f08c379a00000000000000000000000000000000000000000000000000000000081526004016114ad906133d2565b60405180910390fd5b50565b600033905090565b816004600083815260200190815260200160002060006101000a81548173ffffffffffffffffffffffffffffffffffffffff021916908373ffffffffffffffffffffffffffffffffffffffff160217905550808273ffffffffffffffffffffffffffffffffffffffff1661153483610c30565b73ffffffffffffffffffffffffffffffffffffffff167f8c5be1e5ebec7d5bd14f71427d1e84f3dd0314c0f7b2291e5b200ac8c7c3b92560405160405180910390a45050565b60006008600084815260200190815260200160002060009054906101000a900473ffffffffffffffffffffffffffffffffffffffff1690506000600954905060006064846000815181106115d1576115d0613311565b5b60200260200101516115e39190613780565b90506116246040518060400160405280600981526020017f6d6f64646564526e67000000000000000000000000000000000000000000000081525082611eec565b600061162f82610e9c565b905061163b8484611f88565b600160095461164a91906134b3565b60098190555061171283600a83600281111561166957611668612ec7565b5b8154811061167a57611679613311565b5b90600052602060002001805461168f90613100565b80601f01602080910402602001604051908101604052809291908181526020018280546116bb90613100565b80156117085780601f106116dd57610100808354040283529160200191611708565b820191906000526020600020905b8154815290600101906020018083116116eb57829003601f168201915b5050505050611fa6565b7f8a269f26b688e110e9cbd887d163dab35cae678fa353a0292de532c0cac1ecdc81856040516117439291906137b1565b60405180910390a1505050505050565b60008061175f83610c30565b90508073ffffffffffffffffffffffffffffffffffffffff168473ffffffffffffffffffffffffffffffffffffffff1614806117a157506117a081856112d5565b5b806117df57508373ffffffffffffffffffffffffffffffffffffffff166117c7846107fd565b73ffffffffffffffffffffffffffffffffffffffff16145b91505092915050565b8273ffffffffffffffffffffffffffffffffffffffff1661180882610c30565b73ffffffffffffffffffffffffffffffffffffffff161461185e576040517f08c379a00000000000000000000000000000000000000000000000000000000081526004016118559061384c565b60405180910390fd5b600073ffffffffffffffffffffffffffffffffffffffff168273ffffffffffffffffffffffffffffffffffffffff1614156118ce576040517f08c379a00000000000000000000000000000000000000000000000000000000081526004016118c5906138de565b60405180910390fd5b6118db838383600161201a565b8273ffffffffffffffffffffffffffffffffffffffff166118fb82610c30565b73ffffffffffffffffffffffffffffffffffffffff1614611951576040517f08c379a00000000000000000000000000000000000000000000000000000000081526004016119489061384c565b60405180910390fd5b6004600082815260200190815260200160002060006101000a81549073ffffffffffffffffffffffffffffffffffffffff02191690556001600360008573ffffffffffffffffffffffffffffffffffffffff1673ffffffffffffffffffffffffffffffffffffffff168152602001908152602001600020600082825403925050819055506001600360008473ffffffffffffffffffffffffffffffffffffffff1673ffffffffffffffffffffffffffffffffffffffff16815260200190815260200160002060008282540192505081905550816002600083815260200190815260200160002060006101000a81548173ffffffffffffffffffffffffffffffffffffffff021916908373ffffffffffffffffffffffffffffffffffffffff160217905550808273ffffffffffffffffffffffffffffffffffffffff168473ffffffffffffffffffffffffffffffffffffffff167fddf252ad1be2c89b69c2b068fc378daa952ba7f163c4a11628f55a4df523b3ef60405160405180910390a4611add8383836001612140565b505050565b611aea6114b9565b73ffffffffffffffffffffffffffffffffffffffff16611b08610d97565b73ffffffffffffffffffffffffffffffffffffffff1614611b5e576040517f08c379a0000000000000000000000000000000000000000000000000000000008152600401611b559061394a565b60405180910390fd5b565b60006002600083815260200190815260200160002060009054906101000a900473ffffffffffffffffffffffffffffffffffffffff169050919050565b6000600760009054906101000a900473ffffffffffffffffffffffffffffffffffffffff16905081600760006101000a81548173ffffffffffffffffffffffffffffffffffffffff021916908373ffffffffffffffffffffffffffffffffffffffff1602179055508173ffffffffffffffffffffffffffffffffffffffff168173ffffffffffffffffffffffffffffffffffffffff167f8be0079c531659141344cd1fd0a4f28419497f9722a3daafe3b4186f6b6457e060405160405180910390a35050565b8173ffffffffffffffffffffffffffffffffffffffff168373ffffffffffffffffffffffffffffffffffffffff161415611cd2576040517f08c379a0000000000000000000000000000000000000000000000000000000008152600401611cc9906139b6565b60405180910390fd5b80600560008573ffffffffffffffffffffffffffffffffffffffff1673ffffffffffffffffffffffffffffffffffffffff16815260200190815260200160002060008473ffffffffffffffffffffffffffffffffffffffff1673ffffffffffffffffffffffffffffffffffffffff16815260200190815260200160002060006101000a81548160ff0219169083151502179055508173ffffffffffffffffffffffffffffffffffffffff168373ffffffffffffffffffffffffffffffffffffffff167f17307eab39ab6107e8899845ad3d59bd9653f200f220920489ca2b5937696c3183604051611dc39190612946565b60405180910390a3505050565b611ddb8484846117e8565b611de784848484612146565b611e26576040517f08c379a0000000000000000000000000000000000000000000000000000000008152600401611e1d90613a48565b60405180910390fd5b50505050565b606060405180602001604052806000815250905090565b6060611e4e8261146e565b6000611e58611e2c565b90506000815111611e785760405180602001604052806000815250611ea3565b80611e82846122dd565b604051602001611e9392919061369b565b6040516020818303038152906040525b915050919050565b60008073ffffffffffffffffffffffffffffffffffffffff16611ecd83611b60565b73ffffffffffffffffffffffffffffffffffffffff1614159050919050565b611f848282604051602401611f02929190613a68565b6040516020818303038152906040527fb60e72cc000000000000000000000000000000000000000000000000000000007bffffffffffffffffffffffffffffffffffffffffffffffffffffffff19166020820180517bffffffffffffffffffffffffffffffffffffffffffffffffffffffff83818316178352505050506123b5565b5050565b611fa28282604051806020016040528060008152506123de565b5050565b611faf82611eab565b611fee576040517f08c379a0000000000000000000000000000000000000000000000000000000008152600401611fe590613b0a565b60405180910390fd5b806006600084815260200190815260200160002090805190602001906120159291906127ef565b505050565b600181111561213a57600073ffffffffffffffffffffffffffffffffffffffff168473ffffffffffffffffffffffffffffffffffffffff16146120ae5780600360008673ffffffffffffffffffffffffffffffffffffffff1673ffffffffffffffffffffffffffffffffffffffff16815260200190815260200160002060008282546120a69190613b2a565b925050819055505b600073ffffffffffffffffffffffffffffffffffffffff168373ffffffffffffffffffffffffffffffffffffffff16146121395780600360008573ffffffffffffffffffffffffffffffffffffffff1673ffffffffffffffffffffffffffffffffffffffff168152602001908152602001600020600082825461213191906134b3565b925050819055505b5b50505050565b50505050565b60006121678473ffffffffffffffffffffffffffffffffffffffff16612439565b156122d0578373ffffffffffffffffffffffffffffffffffffffff1663150b7a026121906114b9565b8786866040518563ffffffff1660e01b81526004016121b29493929190613bb3565b602060405180830381600087803b1580156121cc57600080fd5b505af19250505080156121fd57506040513d601f19601f820116820180604052508101906121fa9190613c14565b60015b612280573d806000811461222d576040519150601f19603f3d011682016040523d82523d6000602084013e612232565b606091505b50600081511415612278576040517f08c379a000000000000000000000000000000000000000000000000000000000815260040161226f90613a48565b60405180910390fd5b805181602001fd5b63150b7a0260e01b7bffffffffffffffffffffffffffffffffffffffffffffffffffffffff1916817bffffffffffffffffffffffffffffffffffffffffffffffffffffffff1916149150506122d5565b600190505b949350505050565b6060600060016122ec8461245c565b01905060008167ffffffffffffffff81111561230b5761230a612b76565b5b6040519080825280601f01601f19166020018201604052801561233d5781602001600182028036833780820191505090505b509050600082602001820190505b6001156123aa578080600190039150507f3031323334353637383961626364656600000000000000000000000000000000600a86061a8153600a858161239457612393613751565b5b04945060008514156123a5576123aa565b61234b565b819350505050919050565b60008151905060006a636f6e736f6c652e6c6f679050602083016000808483855afa5050505050565b6123e883836125af565b6123f56000848484612146565b612434576040517f08c379a000000000000000000000000000000000000000000000000000000000815260040161242b90613a48565b60405180910390fd5b505050565b6000808273ffffffffffffffffffffffffffffffffffffffff163b119050919050565b600080600090507a184f03e93ff9f4daa797ed6e38ed64bf6a1f01000000000000000083106124ba577a184f03e93ff9f4daa797ed6e38ed64bf6a1f01000000000000000083816124b0576124af613751565b5b0492506040810190505b6d04ee2d6d415b85acef810000000083106124f7576d04ee2d6d415b85acef810000000083816124ed576124ec613751565b5b0492506020810190505b662386f26fc10000831061252657662386f26fc10000838161251c5761251b613751565b5b0492506010810190505b6305f5e100831061254f576305f5e100838161254557612544613751565b5b0492506008810190505b612710831061257457612710838161256a57612569613751565b5b0492506004810190505b60648310612597576064838161258d5761258c613751565b5b0492506002810190505b600a83106125a6576001810190505b80915050919050565b600073ffffffffffffffffffffffffffffffffffffffff168273ffffffffffffffffffffffffffffffffffffffff16141561261f576040517f08c379a000000000000000000000000000000000000000000000000000000000815260040161261690613c8d565b60405180910390fd5b61262881611eab565b15612668576040517f08c379a000000000000000000000000000000000000000000000000000000000815260040161265f90613cf9565b60405180910390fd5b61267660008383600161201a565b61267f81611eab565b156126bf576040517f08c379a00000000000000000000000000000000000000000000000000000000081526004016126b690613cf9565b60405180910390fd5b6001600360008473ffffffffffffffffffffffffffffffffffffffff1673ffffffffffffffffffffffffffffffffffffffff16815260200190815260200160002060008282540192505081905550816002600083815260200190815260200160002060006101000a81548173ffffffffffffffffffffffffffffffffffffffff021916908373ffffffffffffffffffffffffffffffffffffffff160217905550808273ffffffffffffffffffffffffffffffffffffffff16600073ffffffffffffffffffffffffffffffffffffffff167fddf252ad1be2c89b69c2b068fc378daa952ba7f163c4a11628f55a4df523b3ef60405160405180910390a46127c9600083836001612140565b5050565b6040518060600160405280600390602082028036833780820191505090505090565b8280546127fb90613100565b90600052602060002090601f01602090048101928261281d5760008555612864565b82601f1061283657805160ff1916838001178555612864565b82800160010185558215612864579182015b82811115612863578251825591602001919060010190612848565b5b5090506128719190612875565b5090565b5b8082111561288e576000816000905550600101612876565b5090565b6000604051905090565b600080fd5b600080fd5b60007fffffffff0000000000000000000000000000000000000000000000000000000082169050919050565b6128db816128a6565b81146128e657600080fd5b50565b6000813590506128f8816128d2565b92915050565b6000602082840312156129145761291361289c565b5b6000612922848285016128e9565b91505092915050565b60008115159050919050565b6129408161292b565b82525050565b600060208201905061295b6000830184612937565b92915050565b600081519050919050565b600082825260208201905092915050565b60005b8381101561299b578082015181840152602081019050612980565b838111156129aa576000848401525b50505050565b6000601f19601f8301169050919050565b60006129cc82612961565b6129d6818561296c565b93506129e681856020860161297d565b6129ef816129b0565b840191505092915050565b60006020820190508181036000830152612a1481846129c1565b905092915050565b6000819050919050565b612a2f81612a1c565b8114612a3a57600080fd5b50565b600081359050612a4c81612a26565b92915050565b600060208284031215612a6857612a6761289c565b5b6000612a7684828501612a3d565b91505092915050565b600073ffffffffffffffffffffffffffffffffffffffff82169050919050565b6000612aaa82612a7f565b9050919050565b612aba81612a9f565b82525050565b6000602082019050612ad56000830184612ab1565b92915050565b612ae481612a9f565b8114612aef57600080fd5b50565b600081359050612b0181612adb565b92915050565b60008060408385031215612b1e57612b1d61289c565b5b6000612b2c85828601612af2565b9250506020612b3d85828601612a3d565b9150509250929050565b612b5081612a1c565b82525050565b6000602082019050612b6b6000830184612b47565b92915050565b600080fd5b7f4e487b7100000000000000000000000000000000000000000000000000000000600052604160045260246000fd5b612bae826129b0565b810181811067ffffffffffffffff82111715612bcd57612bcc612b76565b5b80604052505050565b6000612be0612892565b9050612bec8282612ba5565b919050565b600067ffffffffffffffff821115612c0c57612c0b612b76565b5b602082029050602081019050919050565b600080fd5b6000612c35612c3084612bf1565b612bd6565b90508083825260208201905060208402830185811115612c5857612c57612c1d565b5b835b81811015612c815780612c6d8882612a3d565b845260208401935050602081019050612c5a565b5050509392505050565b600082601f830112612ca057612c9f612b71565b5b8135612cb0848260208601612c22565b91505092915050565b60008060408385031215612cd057612ccf61289c565b5b6000612cde85828601612a3d565b925050602083013567ffffffffffffffff811115612cff57612cfe6128a1565b5b612d0b85828601612c8b565b9150509250929050565b600080600060608486031215612d2e57612d2d61289c565b5b6000612d3c86828701612af2565b9350506020612d4d86828701612af2565b9250506040612d5e86828701612a3d565b9150509250925092565b600060039050919050565b600081905092915050565b6000819050919050565b612d9181612a1c565b82525050565b6000612da38383612d88565b60208301905092915050565b6000602082019050919050565b612dc581612d68565b612dcf8184612d73565b9250612dda82612d7e565b8060005b83811015612e0b578151612df28782612d97565b9650612dfd83612daf565b925050600181019050612dde565b505050505050565b6000606082019050612e286000830184612dbc565b92915050565b600060208284031215612e4457612e4361289c565b5b6000612e5284828501612af2565b91505092915050565b612e648161292b565b8114612e6f57600080fd5b50565b600081359050612e8181612e5b565b92915050565b60008060408385031215612e9e57612e9d61289c565b5b6000612eac85828601612af2565b9250506020612ebd85828601612e72565b9150509250929050565b7f4e487b7100000000000000000000000000000000000000000000000000000000600052602160045260246000fd5b60038110612f0757612f06612ec7565b5b50565b6000819050612f1882612ef6565b919050565b6000612f2882612f0a565b9050919050565b612f3881612f1d565b82525050565b6000602082019050612f536000830184612f2f565b92915050565b600080fd5b600067ffffffffffffffff821115612f7957612f78612b76565b5b612f82826129b0565b9050602081019050919050565b82818337600083830152505050565b6000612fb1612fac84612f5e565b612bd6565b905082815260208101848484011115612fcd57612fcc612f59565b5b612fd8848285612f8f565b509392505050565b600082601f830112612ff557612ff4612b71565b5b8135613005848260208601612f9e565b91505092915050565b600080600080608085870312156130285761302761289c565b5b600061303687828801612af2565b945050602061304787828801612af2565b935050604061305887828801612a3d565b925050606085013567ffffffffffffffff811115613079576130786128a1565b5b61308587828801612fe0565b91505092959194509250565b600080604083850312156130a8576130a761289c565b5b60006130b685828601612af2565b92505060206130c785828601612af2565b9150509250929050565b7f4e487b7100000000000000000000000000000000000000000000000000000000600052602260045260246000fd5b6000600282049050600182168061311857607f821691505b6020821081141561312c5761312b6130d1565b5b50919050565b7f4552433732313a20617070726f76616c20746f2063757272656e74206f776e6560008201527f7200000000000000000000000000000000000000000000000000000000000000602082015250565b600061318e60218361296c565b915061319982613132565b604082019050919050565b600060208201905081810360008301526131bd81613181565b9050919050565b7f4552433732313a20617070726f76652063616c6c6572206973206e6f7420746f60008201527f6b656e206f776e6572206f7220617070726f76656420666f7220616c6c000000602082015250565b6000613220603d8361296c565b915061322b826131c4565b604082019050919050565b6000602082019050818103600083015261324f81613213565b9050919050565b600060408201905061326b6000830185612ab1565b6132786020830184612ab1565b9392505050565b7f4552433732313a2063616c6c6572206973206e6f7420746f6b656e206f776e6560008201527f72206f7220617070726f76656400000000000000000000000000000000000000602082015250565b60006132db602d8361296c565b91506132e68261327f565b604082019050919050565b6000602082019050818103600083015261330a816132ce565b9050919050565b7f4e487b7100000000000000000000000000000000000000000000000000000000600052603260045260246000fd5b600081905092915050565b50565b600061335b600083613340565b91506133668261334b565b600082019050919050565b600061337c8261334e565b9150819050919050565b7f4552433732313a20696e76616c696420746f6b656e2049440000000000000000600082015250565b60006133bc60188361296c565b91506133c782613386565b602082019050919050565b600060208201905081810360008301526133eb816133af565b9050919050565b7f4552433732313a2061646472657373207a65726f206973206e6f74206120766160008201527f6c6964206f776e65720000000000000000000000000000000000000000000000602082015250565b600061344e60298361296c565b9150613459826133f2565b604082019050919050565b6000602082019050818103600083015261347d81613441565b9050919050565b7f4e487b7100000000000000000000000000000000000000000000000000000000600052601160045260246000fd5b60006134be82612a1c565b91506134c983612a1c565b9250827fffffffffffffffffffffffffffffffffffffffffffffffffffffffffffffffff038211156134fe576134fd613484565b5b828201905092915050565b600061351482612a1c565b91507fffffffffffffffffffffffffffffffffffffffffffffffffffffffffffffffff82141561354757613546613484565b5b600182019050919050565b6000819050919050565b61356581613552565b82525050565b600067ffffffffffffffff82169050919050565b6135888161356b565b82525050565b600061ffff82169050919050565b6135a58161358e565b82525050565b600063ffffffff82169050919050565b6135c4816135ab565b82525050565b600060a0820190506135df600083018861355c565b6135ec602083018761357f565b6135f9604083018661359c565b61360660608301856135bb565b61361360808301846135bb565b9695505050505050565b60008151905061362c81612a26565b92915050565b6000602082840312156136485761364761289c565b5b60006136568482850161361d565b91505092915050565b600081905092915050565b600061367582612961565b61367f818561365f565b935061368f81856020860161297d565b80840191505092915050565b60006136a7828561366a565b91506136b3828461366a565b91508190509392505050565b7f4f776e61626c653a206e6577206f776e657220697320746865207a65726f206160008201527f6464726573730000000000000000000000000000000000000000000000000000602082015250565b600061371b60268361296c565b9150613726826136bf565b604082019050919050565b6000602082019050818103600083015261374a8161370e565b9050919050565b7f4e487b7100000000000000000000000000000000000000000000000000000000600052601260045260246000fd5b600061378b82612a1c565b915061379683612a1c565b9250826137a6576137a5613751565b5b828206905092915050565b60006040820190506137c66000830185612f2f565b6137d36020830184612ab1565b9392505050565b7f4552433732313a207472616e736665722066726f6d20696e636f72726563742060008201527f6f776e6572000000000000000000000000000000000000000000000000000000602082015250565b600061383660258361296c565b9150613841826137da565b604082019050919050565b6000602082019050818103600083015261386581613829565b9050919050565b7f4552433732313a207472616e7366657220746f20746865207a65726f2061646460008201527f7265737300000000000000000000000000000000000000000000000000000000602082015250565b60006138c860248361296c565b91506138d38261386c565b604082019050919050565b600060208201905081810360008301526138f7816138bb565b9050919050565b7f4f776e61626c653a2063616c6c6572206973206e6f7420746865206f776e6572600082015250565b600061393460208361296c565b915061393f826138fe565b602082019050919050565b6000602082019050818103600083015261396381613927565b9050919050565b7f4552433732313a20617070726f766520746f2063616c6c657200000000000000600082015250565b60006139a060198361296c565b91506139ab8261396a565b602082019050919050565b600060208201905081810360008301526139cf81613993565b9050919050565b7f4552433732313a207472616e7366657220746f206e6f6e20455243373231526560008201527f63656976657220696d706c656d656e7465720000000000000000000000000000602082015250565b6000613a3260328361296c565b9150613a3d826139d6565b604082019050919050565b60006020820190508181036000830152613a6181613a25565b9050919050565b60006040820190508181036000830152613a8281856129c1565b9050613a916020830184612b47565b9392505050565b7f45524337323155524953746f726167653a2055524920736574206f66206e6f6e60008201527f6578697374656e7420746f6b656e000000000000000000000000000000000000602082015250565b6000613af4602e8361296c565b9150613aff82613a98565b604082019050919050565b60006020820190508181036000830152613b2381613ae7565b9050919050565b6000613b3582612a1c565b9150613b4083612a1c565b925082821015613b5357613b52613484565b5b828203905092915050565b600081519050919050565b600082825260208201905092915050565b6000613b8582613b5e565b613b8f8185613b69565b9350613b9f81856020860161297d565b613ba8816129b0565b840191505092915050565b6000608082019050613bc86000830187612ab1565b613bd56020830186612ab1565b613be26040830185612b47565b8181036060830152613bf48184613b7a565b905095945050505050565b600081519050613c0e816128d2565b92915050565b600060208284031215613c2a57613c2961289c565b5b6000613c3884828501613bff565b91505092915050565b7f4552433732313a206d696e7420746f20746865207a65726f2061646472657373600082015250565b6000613c7760208361296c565b9150613c8282613c41565b602082019050919050565b60006020820190508181036000830152613ca681613c6a565b9050919050565b7f4552433732313a20746f6b656e20616c7265616479206d696e74656400000000600082015250565b6000613ce3601c8361296c565b9150613cee82613cad565b602082019050919050565b60006020820190508181036000830152613d1281613cd6565b905091905056fea2646970667358221220177147580f9b0d54741f4504c02c84409f79bf55f75ef760e9b7cdd42e01eef864736f6c63430008080033",
  "linkReferences": {},
  "deployedLinkReferences": {}
}